:1000000010E0A0E6B0E0E8ECF0E003C0C89531965F
:100010000D92A436B107D1F7109280008BE0809347
:10002000810089EF90E09093890080938800EFE64B
:10003000F0E080818260808308951F920F920FB656
:100040000F9211248F939F9395B180E2892785B9F0
:100050009F918F910F900FBE0F901F901895259A2A
:100060000E940C00789426EF3FEF4AE050E0609148
:100070006000709161008091620090916300860F32
:10008000971F90936300809362008091620090912B
:100090006300883C910524F0309361002093600058
:1000A00080916200909163000B9724F4509361005B
:1000B000409360006FEF81EE94E06150804090408B
:0800C000E1F700C00000D3CFFE
:0400C8000A00E8033F
:00000001FF
